{
  "_format": "hh3-artifact-1",
  "contractName": "CimaReputacion",
  "sourceName": "contracts/Reputacion.sol",
  "abi": [
    {
      "inputs": [
        {
          "internalType": "address",
          "name": "_agente",
          "type": "address"
        }
      ],
      "stateMutability": "nonpayable",
      "type": "constructor"
    },
    {
      "anonymous": false,
      "inputs": [
        {
          "indexed": true,
          "internalType": "address",
          "name": "anterior",
          "type": "address"
        },
        {
          "indexed": true,
          "internalType": "address",
          "name": "nuevo",
          "type": "address"
        }
      ],
      "name": "AgenteActualizado",
      "type": "event"
    },
    {
      "anonymous": false,
      "inputs": [
        {
          "indexed": true,
          "internalType": "address",
          "name": "locatario",
          "type": "address"
        },
        {
          "indexed": false,
          "internalType": "uint256",
          "name": "timestamp",
          "type": "uint256"
        }
      ],
      "name": "DisputaAbierta",
      "type": "event"
    },
    {
      "anonymous": false,
      "inputs": [
        {
          "indexed": true,
          "internalType": "address",
          "name": "locatario",
          "type": "address"
        },
        {
          "indexed": false,
          "internalType": "uint256",
          "name": "timestamp",
          "type": "uint256"
        }
      ],
      "name": "DisputaResuelta",
      "type": "event"
    },
    {
      "anonymous": false,
      "inputs": [
        {
          "indexed": true,
          "internalType": "address",
          "name": "locatario",
          "type": "address"
        },
        {
          "indexed": false,
          "internalType": "uint256",
          "name": "timestamp",
          "type": "uint256"
        }
      ],
      "name": "LocatarioRegistrado",
      "type": "event"
    },
    {
      "anonymous": false,
      "inputs": [
        {
          "indexed": true,
          "internalType": "uint256",
          "name": "txId",
          "type": "uint256"
        },
        {
          "indexed": true,
          "internalType": "address",
          "name": "locatario",
          "type": "address"
        },
        {
          "indexed": false,
          "internalType": "uint256",
          "name": "monto",
          "type": "uint256"
        },
        {
          "indexed": false,
          "internalType": "enum CimaReputacion.Categoria",
          "name": "categoria",
          "type": "uint8"
        },
        {
          "indexed": false,
          "internalType": "uint256",
          "name": "timestamp",
          "type": "uint256"
        }
      ],
      "name": "PagoRegistrado",
      "type": "event"
    },
    {
      "inputs": [
        {
          "internalType": "address",
          "name": "_locatario",
          "type": "address"
        }
      ],
      "name": "abrirDisputa",
      "outputs": [],
      "stateMutability": "nonpayable",
      "type": "function"
    },
    {
      "inputs": [
        {
          "internalType": "address",
          "name": "_nuevoAgente",
          "type": "address"
        }
      ],
      "name": "actualizarAgente",
      "outputs": [],
      "stateMutability": "nonpayable",
      "type": "function"
    },
    {
      "inputs": [],
      "name": "agente",
      "outputs": [
        {
          "internalType": "address",
          "name": "",
          "type": "address"
        }
      ],
      "stateMutability": "view",
      "type": "function"
    },
    {
      "inputs": [
        {
          "internalType": "address",
          "name": "_locatario",
          "type": "address"
        }
      ],
      "name": "obtenerPerfil",
      "outputs": [
        {
          "components": [
            {
              "internalType": "bool",
              "name": "activo",
              "type": "bool"
            },
            {
              "internalType": "uint256",
              "name": "totalTransacciones",
              "type": "uint256"
            },
            {
              "internalType": "uint256",
              "name": "volumenTotal",
              "type": "uint256"
            },
            {
              "internalType": "uint256",
              "name": "primeraTx",
              "type": "uint256"
            },
            {
              "internalType": "uint256",
              "name": "ultimaTx",
              "type": "uint256"
            },
            {
              "internalType": "uint256",
              "name": "disputasAbiertas",
              "type": "uint256"
            },
            {
              "internalType": "uint256",
              "name": "disputasResueltas",
              "type": "uint256"
            }
          ],
          "internalType": "struct CimaReputacion.PerfilLocatario",
          "name": "",
          "type": "tuple"
        }
      ],
      "stateMutability": "view",
      "type": "function"
    },
    {
      "inputs": [
        {
          "internalType": "uint256",
          "name": "_txId",
          "type": "uint256"
        }
      ],
      "name": "obtenerTransaccion",
      "outputs": [
        {
          "components": [
            {
              "internalType": "address",
              "name": "locatario",
              "type": "address"
            },
            {
              "internalType": "uint256",
              "name": "monto",
              "type": "uint256"
            },
            {
              "internalType": "uint256",
              "name": "timestamp",
              "type": "uint256"
            },
            {
              "internalType": "enum CimaReputacion.Categoria",
              "name": "categoria",
              "type": "uint8"
            }
          ],
          "internalType": "struct CimaReputacion.Transaccion",
          "name": "",
          "type": "tuple"
        }
      ],
      "stateMutability": "view",
      "type": "function"
    },
    {
      "inputs": [
        {
          "internalType": "address",
          "name": "_locatario",
          "type": "address"
        }
      ],
      "name": "obtenerTxsLocatario",
      "outputs": [
        {
          "internalType": "uint256[]",
          "name": "",
          "type": "uint256[]"
        }
      ],
      "stateMutability": "view",
      "type": "function"
    },
    {
      "inputs": [],
      "name": "owner",
      "outputs": [
        {
          "internalType": "address",
          "name": "",
          "type": "address"
        }
      ],
      "stateMutability": "view",
      "type": "function"
    },
    {
      "inputs": [
        {
          "internalType": "address",
          "name": "",
          "type": "address"
        }
      ],
      "name": "perfiles",
      "outputs": [
        {
          "internalType": "bool",
          "name": "activo",
          "type": "bool"
        },
        {
          "internalType": "uint256",
          "name": "totalTransacciones",
          "type": "uint256"
        },
        {
          "internalType": "uint256",
          "name": "volumenTotal",
          "type": "uint256"
        },
        {
          "internalType": "uint256",
          "name": "primeraTx",
          "type": "uint256"
        },
        {
          "internalType": "uint256",
          "name": "ultimaTx",
          "type": "uint256"
        },
        {
          "internalType": "uint256",
          "name": "disputasAbiertas",
          "type": "uint256"
        },
        {
          "internalType": "uint256",
          "name": "disputasResueltas",
          "type": "uint256"
        }
      ],
      "stateMutability": "view",
      "type": "function"
    },
    {
      "inputs": [
        {
          "internalType": "address",
          "name": "_locatario",
          "type": "address"
        }
      ],
      "name": "registrarLocatario",
      "outputs": [],
      "stateMutability": "nonpayable",
      "type": "function"
    },
    {
      "inputs": [
        {
          "internalType": "address",
          "name": "_locatario",
          "type": "address"
        },
        {
          "internalType": "uint256",
          "name": "_monto",
          "type": "uint256"
        },
        {
          "internalType": "enum CimaReputacion.Categoria",
          "name": "_categoria",
          "type": "uint8"
        }
      ],
      "name": "registrarPago",
      "outputs": [],
      "stateMutability": "nonpayable",
      "type": "function"
    },
    {
      "inputs": [
        {
          "internalType": "address",
          "name": "_locatario",
          "type": "address"
        }
      ],
      "name": "resolverDisputa",
      "outputs": [],
      "stateMutability": "nonpayable",
      "type": "function"
    },
    {
      "inputs": [],
      "name": "totalTransaccionesGlobal",
      "outputs": [
        {
          "internalType": "uint256",
          "name": "",
          "type": "uint256"
        }
      ],
      "stateMutability": "view",
      "type": "function"
    },
    {
      "inputs": [
        {
          "internalType": "uint256",
          "name": "",
          "type": "uint256"
        }
      ],
      "name": "transacciones",
      "outputs": [
        {
          "internalType": "address",
          "name": "locatario",
          "type": "address"
        },
        {
          "internalType": "uint256",
          "name": "monto",
          "type": "uint256"
        },
        {
          "internalType": "uint256",
          "name": "timestamp",
          "type": "uint256"
        },
        {
          "internalType": "enum CimaReputacion.Categoria",
          "name": "categoria",
          "type": "uint8"
        }
      ],
      "stateMutability": "view",
      "type": "function"
    },
    {
      "inputs": [
        {
          "internalType": "address",
          "name": "",
          "type": "address"
        },
        {
          "internalType": "uint256",
          "name": "",
          "type": "uint256"
        }
      ],
      "name": "txsPorLocatario",
      "outputs": [
        {
          "internalType": "uint256",
          "name": "",
          "type": "uint256"
        }
      ],
      "stateMutability": "view",
      "type": "function"
    }
  ],
  "bytecode": "0x608060405234801561000f575f80fd5b50604051610fc8380380610fc883398101604081905261002e916100ba565b6001600160a01b0381166100885760405162461bcd60e51b815260206004820152601e60248201527f4167656e7465206e6f2070756564652073657220616464726573732830290000604482015260640160405180910390fd5b5f8054336001600160a01b031991821617909155600180549091166001600160a01b03929092169190911790556100e7565b5f602082840312156100ca575f80fd5b81516001600160a01b03811681146100e0575f80fd5b9392505050565b610ed4806100f45f395ff3fe608060405234801561000f575f80fd5b50600436106100e5575f3560e01c80639c8d400411610088578063ca53b7bc11610063578063ca53b7bc146102aa578063cb27d995146102ca578063cbb50456146102dd578063d34a814d146102f0575f80fd5b80639c8d40041461021b578063a9907b621461022d578063c39c581814610240575f80fd5b80638d54b6b7116100c35780638d54b6b7146101ab5780638da5cb5b146101d65780639a547b34146101e85780639aa49e8a14610208575f80fd5b80633363b9b6146100e9578063499e1c47146100fe57806370d551e214610188575b5f80fd5b6100fc6100f7366004610c38565b610303565b005b61014c61010c366004610c78565b600260208190525f9182526040909120805460018201549282015460038301546004840154600585015460069095015460ff909416959492939192909187565b6040805197151588526020880196909652948601939093526060850191909152608084015260a083015260c082015260e0015b60405180910390f35b61019b610196366004610c98565b61054f565b60405161017f9493929190610ce3565b6001546101be906001600160a01b031681565b6040516001600160a01b03909116815260200161017f565b5f546101be906001600160a01b031681565b6101fb6101f6366004610c98565b610594565b60405161017f9190610d17565b6100fc610216366004610c78565b610686565b6003545b60405190815260200161017f565b6100fc61023b366004610c78565b6107eb565b61025361024e366004610c78565b6108b9565b60405161017f91905f60e0820190508251151582526020830151602083015260408301516040830152606083015160608301526080830151608083015260a083015160a083015260c083015160c083015292915050565b6102bd6102b8366004610c78565b610961565b60405161017f9190610d56565b61021f6102d8366004610d99565b6109ca565b6100fc6102eb366004610c78565b6109f5565b6100fc6102fe366004610c78565b610b26565b6001546001600160a01b031633146103365760405162461bcd60e51b815260040161032d90610dc1565b60405180910390fd5b6001600160a01b0383165f90815260026020526040902054839060ff1661036f5760405162461bcd60e51b815260040161032d90610df1565b5f83116103b35760405162461bcd60e51b815260206004820152601260248201527104d6f6e746f206465626520736572203e20360741b604482015260640161032d565b6001600160a01b0384165f90815260026020526040812060018101549091036103dd574260038201555b6001816001015f8282546103f19190610e3c565b9250508190555083816002015f82825461040b9190610e3c565b925050819055504281600401819055505f600380549050905060036040518060800160405280886001600160a01b0316815260200187815260200142815260200186600481111561045e5761045e610caf565b90528154600180820184555f9384526020938490208351600493840290910180546001600160a01b0319166001600160a01b0390921691909117815593830151848201556040830151600285015560608301516003850180549495949193909260ff19909216919084908111156104d7576104d7610caf565b021790555050506001600160a01b0386165f818152600460209081526040808320805460018101825590845291909220018390555182907f91269a5f4f0de7b28431f5e05ba6be727481098fc45d994912b265a831fdca2f9061053f90899089904290610e55565b60405180910390a3505050505050565b6003818154811061055e575f80fd5b5f91825260209091206004909102018054600182015460028301546003909301546001600160a01b039092169350919060ff1684565b6105bb604080516080810182525f8082526020820181905291810182905290606082015290565b60035482106105fb5760405162461bcd60e51b815260206004820152600c60248201526b5478206e6f2065786973746560a01b604482015260640161032d565b6003828154811061060e5761060e610e77565b5f91825260209182902060408051608081018252600493840290920180546001600160a01b031683526001810154948301949094526002840154908201526003830154909291606084019160ff169081111561066c5761066c610caf565b600481111561067d5761067d610caf565b90525092915050565b6001546001600160a01b031633146106b05760405162461bcd60e51b815260040161032d90610dc1565b6001600160a01b0381165f90815260026020526040902054819060ff166106e95760405162461bcd60e51b815260040161032d90610df1565b6001600160a01b0382165f908152600260205260409020600501546107485760405162461bcd60e51b815260206004820152601560248201527453696e20646973707574617320616269657274617360581b604482015260640161032d565b6001600160a01b0382165f908152600260205260408120600501805460019290610773908490610e8b565b90915550506001600160a01b0382165f9081526002602052604081206006018054600192906107a3908490610e3c565b90915550506040514281526001600160a01b038316907f273068fde3270a22fff65399ef094f0e78d961b415b18c44ad31c3311ffd693d906020015b60405180910390a25050565b6001546001600160a01b031633146108155760405162461bcd60e51b815260040161032d90610dc1565b6001600160a01b0381165f90815260026020526040902054819060ff1661084e5760405162461bcd60e51b815260040161032d90610df1565b6001600160a01b0382165f908152600260205260408120600501805460019290610879908490610e3c565b90915550506040514281526001600160a01b038316907fa1035bd7c392ac8a946b8a3ccbb7bebf7c4774f8bb343b68a58735479da31a72906020016107df565b6108f46040518060e001604052805f151581526020015f81526020015f81526020015f81526020015f81526020015f81526020015f81525090565b506001600160a01b03165f90815260026020818152604092839020835160e081018552815460ff161515815260018201549281019290925291820154928101929092526003810154606083015260048101546080830152600581015460a08301526006015460c082015290565b6001600160a01b0381165f908152600460209081526040918290208054835181840281018401909452808452606093928301828280156109be57602002820191905f5260205f20905b8154815260200190600101908083116109aa575b50505050509050919050565b6004602052815f5260405f2081815481106109e3575f80fd5b905f5260205f20015f91509150505481565b6001546001600160a01b03163314610a1f5760405162461bcd60e51b815260040161032d90610dc1565b6001600160a01b038116610a6a5760405162461bcd60e51b8152602060048201526012602482015271446972656363696f6e20696e76616c69646160701b604482015260640161032d565b6001600160a01b0381165f9081526002602052604090205460ff1615610ac75760405162461bcd60e51b815260206004820152601260248201527159612065737461207265676973747261646f60701b604482015260640161032d565b6001600160a01b0381165f8181526002602052604090819020805460ff19166001179055517f38929317fa26ea4ee31430bb11685a9c0b658a4c7150d7011a6958cb6fbdfdc390610b1b9042815260200190565b60405180910390a250565b5f546001600160a01b03163314610b6c5760405162461bcd60e51b815260206004820152600a60248201526929b7b6379037bbb732b960b11b604482015260640161032d565b6001600160a01b038116610bc25760405162461bcd60e51b815260206004820152601e60248201527f4167656e7465206e6f2070756564652073657220616464726573732830290000604482015260640161032d565b6001546040516001600160a01b038084169216907f2d5b61b2983b638a0c25c46074e80b31971391c7321ffc5211879cf5bcd3313b905f90a3600180546001600160a01b0319166001600160a01b0392909216919091179055565b80356001600160a01b0381168114610c33575f80fd5b919050565b5f805f60608486031215610c4a575f80fd5b610c5384610c1d565b925060208401359150604084013560058110610c6d575f80fd5b809150509250925092565b5f60208284031215610c88575f80fd5b610c9182610c1d565b9392505050565b5f60208284031215610ca8575f80fd5b5035919050565b634e487b7160e01b5f52602160045260245ffd5b60058110610cdf57634e487b7160e01b5f52602160045260245ffd5b9052565b6001600160a01b0385168152602081018490526040810183905260808101610d0e6060830184610cc3565b95945050505050565b81516001600160a01b0316815260208083015190820152604080830151908201526060808301516080830191610d4f90840182610cc3565b5092915050565b602080825282518282018190525f9190848201906040850190845b81811015610d8d57835183529284019291840191600101610d71565b50909695505050505050565b5f8060408385031215610daa575f80fd5b610db383610c1d565b946020939093013593505050565b602080825260169082015275536f6c6f206167656e7465206175746f72697a61646f60501b604082015260600190565b60208082526017908201527f4c6f6361746172696f206e6f207265676973747261646f000000000000000000604082015260600190565b634e487b7160e01b5f52601160045260245ffd5b80820180821115610e4f57610e4f610e28565b92915050565b83815260608101610e696020830185610cc3565b826040830152949350505050565b634e487b7160e01b5f52603260045260245ffd5b81810381811115610e4f57610e4f610e2856fea2646970667358221220d5084d8db9dc029c5688d17d029a03a54a195ea78ca8a6f4e2c9666e9113235e64736f6c63430008180033",
  "linkReferences": {},
  "deployedLinkReferences": {},
  "immutableReferences": {},
  "inputSourceName": "project/contracts/Reputacion.sol",
  "buildInfoId": "solc-0_8_24-bdaf629d36a1e54e5d16fca887eb8913e9bf0e8f"
}